:04000000E2EFFEF03D
:020000040001F9
:10FC8700000300010203040500010200000706004B
:10FC97000102030001020304050607040506070025
:10FCA70000000102030405060720EE02F02A50D9DE
:10FCB700262B50DA22DF50FF0A2E6E2AC0D9FF2BDF
:10FCC700C0DAFFDECF2CF0DDCF2DF02CC0D9FF2D11
:10FCD700C0DAFF2E50DF1612003E0E2F6E000E30D8
:10FCE7006E150E316E000E336E010E326E67ECFF2D
:10FCF700F03A683B683E0E2A6E000E2B6E93ECFEC0
:10FD0700F0000E3D6E000E3C6E03D000F03C4A3D05
:10FD17002A3A503C5C3B503D58D8B0ECD7F6D72038
:10FD2700EE02F02A50D9262B50DA22DF502C6E2A09
:10FD3700C0D9FF2BC0DAFFDECF2DF0DDCF2EF02D9F
:10FD4700C0D9FF2EC0DAFFDF502C182F6E2AC0D97A
:10FD5700FF2BC0DAFFDECF2CF0DDCF2DF02CC0D982
:10FD6700FF2DC0DAFF2FC0DFFF120000008C0F88C5
:10FD77000F880F880F880F880F880F8C0F8C0F8CB8
:10FD87000F00000000880F880F8A0F8A0F8A0F8ADA
:10FD97000F8B0F8B0F8B0F8B0F8A0F8A0F8A0F8A90
:10FDA7000F8B0F8B0F8B0F8B0F00000000890F89B4
:10FDB7000F890F890F890F890F890F890F2A0EF66F
:10FDC7006EFE0EF76E010EF86E01EE00F010EEA457
:10FDD700F00900F5CFEEFFE550E150FAE1720EF6BB
:10FDE7006EFD0EF76E010EF86E00EE60F010EE522B
:10FDF700F00900F5CFEEFFE550E150FAE1870EF686
:10FE07006EFC0EF76E010EF86E00EE01F010EE2993
:10FE1700F00900F5CFEEFFE550E150FAE10001707F
:10FE2700EFFEF00000870F830F830F830F830F838D
:10FE37000F830F870F870F870F00000000830F8343
:10FE47000F850F850F850F850F860F860F860F8607
:10FE57000F850F850F850F850F860F860F860F86F7
:10FE67000F00000000840F840F840F840F840F8419
:10FE77000F840F840F0000910F8D0F8D0F8D0F8D45
:10FE87000F8D0F8D0F910F910F910F000000008DB7
:10FE97000F8D0F8F0F8F0F8F0F8F0F900F900F906A
:10FEA7000F900F8F0F8F0F8F0F8F0F900F900F9057
:10FEB7000F900F000000008E0F8E0F8E0F8E0F8E8B
:10FEC7000F8E0F8E0F8E0F3150010D010EF324D9B7
:10FED7006E000EF420DA6EDF50346E3450376E3811
:10FEE7006A3150010D010EF324D96E000EF420DAA9
:10FEF7006EDF50346E010E356E342A02D0D890353D
:10FF070036342EFCD73550396E20EE02F02F50D9FB
:10FF1700263050DA2239C0DFFF32503310D8B41BF5
:10FF2700D020EE02F02F50D9263050DA22DF50349D
:10FF37006E3150020D600EF324D96E000EF420DAF4
:10FF47006EDECF35F0DDCF36F035C0D9FF36C0DAFB
:10FF5700FF3450DF121BD020EE02F02F50D926308D
:10FF670050DA22DF50FF0A346E3150020D600EF373
:10FF770024D96E000EF420DA6EDECF35F0DDCF36F1
:10FF8700F035C0D9FF36C0DAFF3450DF16325033B0
:10FF970010D8B407D03150020D520EF324D96E0198
:10FFA7000E06D03150020D000EF324D96E010EF467
:10FFB70020DA6E2FC0E1FF30C0E2FFDECFE6FFDDC3
:10FFC700CFE5FF20EE05F02F50D9263050DA223248
:10FFD700C0DEFF33C0DDFF20EE03F02F50D92630FF
:10FFE70050DA22000EDE6E000EDD6E2FC02AF030D2
:09FFF700C02BF058ECFEF01200E2
:020000040020DA
:10000000FF0FFF0FFF0FFF0FFF0FFF0FFF0FFF0F80
:020000040030CA
:0C000000FFFFFFFF9FFFFFFFFFFFFFFF60
:00000001FF
